{
  "_format": "hh-sol-artifact-1",
  "contractName": "CreditHistory",
  "sourceName": "contracts/CreditHistory.sol",
  "abi": [
    {
      "anonymous": false,
      "inputs": [
        {
          "indexed": true,
          "internalType": "bytes32",
          "name": "userId",
          "type": "bytes32"
        },
        {
          "indexed": false,
          "internalType": "uint256",
          "name": "loanAmount",
          "type": "uint256"
        },
        {
          "indexed": false,
          "internalType": "string",
          "name": "status",
          "type": "string"
        }
      ],
      "name": "LoanAdded",
      "type": "event"
    },
    {
      "inputs": [
        {
          "internalType": "bytes32",
          "name": "_userId",
          "type": "bytes32"
        },
        {
          "internalType": "uint256",
          "name": "_loanAmount",
          "type": "uint256"
        },
        {
          "internalType": "string",
          "name": "_loanType",
          "type": "string"
        },
        {
          "internalType": "string",
          "name": "_status",
          "type": "string"
        }
      ],
      "name": "addLoan",
      "outputs": [],
      "stateMutability": "nonpayable",
      "type": "function"
    },
    {
      "inputs": [
        {
          "internalType": "bytes32",
          "name": "_userId",
          "type": "bytes32"
        }
      ],
      "name": "getLoans",
      "outputs": [
        {
          "components": [
            {
              "internalType": "address",
              "name": "issuingBank",
              "type": "address"
            },
            {
              "internalType": "uint256",
              "name": "loanAmount",
              "type": "uint256"
            },
            {
              "internalType": "string",
              "name": "loanType",
              "type": "string"
            },
            {
              "internalType": "uint256",
              "name": "dateIssued",
              "type": "uint256"
            },
            {
              "internalType": "string",
              "name": "status",
              "type": "string"
            }
          ],
          "internalType": "struct CreditHistory.Loan[]",
          "name": "",
          "type": "tuple[]"
        }
      ],
      "stateMutability": "view",
      "type": "function"
    },
    {
      "inputs": [
        {
          "internalType": "bytes32",
          "name": "",
          "type": "bytes32"
        },
        {
          "internalType": "uint256",
          "name": "",
          "type": "uint256"
        }
      ],
      "name": "userLoans",
      "outputs": [
        {
          "internalType": "address",
          "name": "issuingBank",
          "type": "address"
        },
        {
          "internalType": "uint256",
          "name": "loanAmount",
          "type": "uint256"
        },
        {
          "internalType": "string",
          "name": "loanType",
          "type": "string"
        },
        {
          "internalType": "uint256",
          "name": "dateIssued",
          "type": "uint256"
        },
        {
          "internalType": "string",
          "name": "status",
          "type": "string"
        }
      ],
      "stateMutability": "view",
      "type": "function"
    }
  ],
  "bytecode": "0x608060405234801561001057600080fd5b50610e98806100206000396000f3fe608060405234801561001057600080fd5b50600436106100415760003560e01c806341bf26d214610046578063619a356a1461007a578063d75ff66814610096575b600080fd5b610060600480360381019061005b9190610609565b6100c6565b604051610071959493929190610729565b60405180910390f35b610094600480360381019061008f91906108bf565b610249565b005b6100b060048036038101906100ab919061095e565b61038a565b6040516100bd9190610b32565b60405180910390f35b600060205281600052604060002081815481106100e257600080fd5b9060005260206000209060050201600091509150508060000160009054906101000a900473ffffffffffffffffffffffffffffffffffffffff169080600101549080600201805461013290610b83565b80601f016020809104026020016040519081016040528092919081815260200182805461015e90610b83565b80156101ab5780601f10610180576101008083540402835291602001916101ab565b820191906000526020600020905b81548152906001019060200180831161018e57829003601f168201915b5050505050908060030154908060040180546101c690610b83565b80601f01602080910402602001604051908101604052809291908181526020018280546101f290610b83565b801561023f5780601f106102145761010080835404028352916020019161023f565b820191906000526020600020905b81548152906001019060200180831161022257829003601f168201915b5050505050905085565b6000808581526020019081526020016000206040518060a001604052803373ffffffffffffffffffffffffffffffffffffffff16815260200185815260200184815260200142815260200183815250908060018154018082558091505060019003906000526020600020906005020160009091909190915060008201518160000160006101000a81548173ffffffffffffffffffffffffffffffffffffffff021916908373ffffffffffffffffffffffffffffffffffffffff1602179055506020820151816001015560408201518160020190816103279190610d60565b506060820151816003015560808201518160040190816103479190610d60565b505050837f01172d478f039b0a36d32d0ac9d002c50bd6e623bfd74789600ceb32c7031a89848360405161037c929190610e32565b60405180910390a250505050565b6060600080838152602001908152602001600020805480602002602001604051908101604052809291908181526020016000905b8282101561057e57838290600052602060002090600502016040518060a00160405290816000820160009054906101000a900473ffffffffffffffffffffffffffffffffffffffff1673ffffffffffffffffffffffffffffffffffffffff1673ffffffffffffffffffffffffffffffffffffffff1681526020016001820154815260200160028201805461045190610b83565b80601f016020809104026020016040519081016040528092919081815260200182805461047d90610b83565b80156104ca5780601f1061049f576101008083540402835291602001916104ca565b820191906000526020600020905b8154815290600101906020018083116104ad57829003601f168201915b50505050508152602001600382015481526020016004820180546104ed90610b83565b80601f016020809104026020016040519081016040528092919081815260200182805461051990610b83565b80156105665780601f1061053b57610100808354040283529160200191610566565b820191906000526020600020905b81548152906001019060200180831161054957829003601f168201915b505050505081525050815260200190600101906103be565b505050509050919050565b6000604051905090565b600080fd5b600080fd5b6000819050919050565b6105b08161059d565b81146105bb57600080fd5b50565b6000813590506105cd816105a7565b92915050565b6000819050919050565b6105e6816105d3565b81146105f157600080fd5b50565b600081359050610603816105dd565b92915050565b600080604083850312156106205761061f610593565b5b600061062e858286016105be565b925050602061063f858286016105f4565b9150509250929050565b600073ffffffffffffffffffffffffffffffffffffffff82169050919050565b600061067482610649565b9050919050565b61068481610669565b82525050565b610693816105d3565b82525050565b600081519050919050565b600082825260208201905092915050565b60005b838110156106d35780820151818401526020810190506106b8565b60008484015250505050565b6000601f19601f8301169050919050565b60006106fb82610699565b61070581856106a4565b93506107158185602086016106b5565b61071e816106df565b840191505092915050565b600060a08201905061073e600083018861067b565b61074b602083018761068a565b818103604083015261075d81866106f0565b905061076c606083018561068a565b818103608083015261077e81846106f0565b90509695505050505050565b600080fd5b600080fd5b7f4e487b7100000000000000000000000000000000000000000000000000000000600052604160045260246000fd5b6107cc826106df565b810181811067ffffffffffffffff821117156107eb576107ea610794565b5b80604052505050565b60006107fe610589565b905061080a82826107c3565b919050565b600067ffffffffffffffff82111561082a57610829610794565b5b610833826106df565b9050602081019050919050565b82818337600083830152505050565b600061086261085d8461080f565b6107f4565b90508281526020810184848401111561087e5761087d61078f565b5b610889848285610840565b509392505050565b600082601f8301126108a6576108a561078a565b5b81356108b684826020860161084f565b91505092915050565b600080600080608085870312156108d9576108d8610593565b5b60006108e7878288016105be565b94505060206108f8878288016105f4565b935050604085013567ffffffffffffffff81111561091957610918610598565b5b61092587828801610891565b925050606085013567ffffffffffffffff81111561094657610945610598565b5b61095287828801610891565b91505092959194509250565b60006020828403121561097457610973610593565b5b6000610982848285016105be565b91505092915050565b600081519050919050565b600082825260208201905092915050565b6000819050602082019050919050565b6109c081610669565b82525050565b6109cf816105d3565b82525050565b600082825260208201905092915050565b60006109f182610699565b6109fb81856109d5565b9350610a0b8185602086016106b5565b610a14816106df565b840191505092915050565b600060a083016000830151610a3760008601826109b7565b506020830151610a4a60208601826109c6565b5060408301518482036040860152610a6282826109e6565b9150506060830151610a7760608601826109c6565b5060808301518482036080860152610a8f82826109e6565b9150508091505092915050565b6000610aa88383610a1f565b905092915050565b6000602082019050919050565b6000610ac88261098b565b610ad28185610996565b935083602082028501610ae4856109a7565b8060005b85811015610b205784840389528151610b018582610a9c565b9450610b0c83610ab0565b925060208a01995050600181019050610ae8565b50829750879550505050505092915050565b60006020820190508181036000830152610b4c8184610abd565b905092915050565b7f4e487b7100000000000000000000000000000000000000000000000000000000600052602260045260246000fd5b60006002820490506001821680610b9b57607f821691505b602082108103610bae57610bad610b54565b5b50919050565b60008190508160005260206000209050919050565b60006020601f8301049050919050565b600082821b905092915050565b600060088302610c167fffffffffffffffffffffffffffffffffffffffffffffffffffffffffffffffff82610bd9565b610c208683610bd9565b95508019841693508086168417925050509392505050565b6000819050919050565b6000610c5d610c58610c53846105d3565b610c38565b6105d3565b9050919050565b6000819050919050565b610c7783610c42565b610c8b610c8382610c64565b848454610be6565b825550505050565b600090565b610ca0610c93565b610cab818484610c6e565b505050565b5b81811015610ccf57610cc4600082610c98565b600181019050610cb1565b5050565b601f821115610d1457610ce581610bb4565b610cee84610bc9565b81016020851015610cfd578190505b610d11610d0985610bc9565b830182610cb0565b50505b505050565b600082821c905092915050565b6000610d3760001984600802610d19565b1980831691505092915050565b6000610d508383610d26565b9150826002028217905092915050565b610d6982610699565b67ffffffffffffffff811115610d8257610d81610794565b5b610d8c8254610b83565b610d97828285610cd3565b600060209050601f831160018114610dca5760008415610db8578287015190505b610dc28582610d44565b865550610e2a565b601f198416610dd886610bb4565b60005b82811015610e0057848901518255600182019150602085019450602081019050610ddb565b86831015610e1d5784890151610e19601f891682610d26565b8355505b6001600288020188555050505b505050505050565b6000604082019050610e47600083018561068a565b8181036020830152610e5981846106f0565b9050939250505056fea2646970667358221220748ac4d5294cab087b9ef200a5609477c7b0cb98381492929bc80bf3ed70345f64736f6c63430008140033",
  "linkReferences": {},
  "deployedLinkReferences": {}
}